:100000000C9434000C943E000C943E000C943E0082
:100010000C943E000C943E000C943E000C943E0068
:100020000C943E000C943E000C943E000C943E0058
:100030000C943E000C943E000C943E000C943E0048
:100040000C943E000C943E000C943E000C943E0038
:100050000C943E000C943E000C943E000C943E0028
:100060000C943E000C943E0011241FBECFEFD8E04C
:10007000DEBFCDBF0E9440000C9471000C940000C4
:1000800084B1836084B985B1816085B985B18D7F84
:1000900085B92FEF87EA91E6215080409040E1F743
:1000A00000C0000085B18E7F85B985B1826085B9B9
:1000B0002FEF83ED90E3215080409040E1F700C0A6
:1000C000000085B18E7F85B985B18D7F85B92FEF11
:1000D00087EA91E6215080409040E1F700C000009F
:0600E000D2CFF894FFCF1F
:00000001FF
