:100000000C9434000C9446000C9448000C94460068
:100010000C9446000C9446000C9446000C94460048
:100020000C9446000C9446000C9446000C94460038
:100030000C9446000C9446000C9446000C94460028
:100040000C9446000C9446000C9446000C94460018
:100050000C9446000C9446000C9446000C94460008
:100060000C9446000C94460011241FBECFEFD8E03C
:10007000DEBFCDBF21E0A0E0B1E001C01D92A13004
:10008000B207E1F70E9457000C949A000C9400000C
:100090001F920F920FB60F9211248F9381E08093DD
:1000A00000018F910F900FBE0F901F90189584B193
:1000B000806284B984B1806184B98AB1877F8AB94A
:1000C0008DB382608DBBE9E6F0E08081886080833B
:1000D00080818B7F8083789480910001882389F0D0
:1000E00085B1806185B92FEF83ED90E32150804089
:1000F0009040E1F700C0000085B18F7E85B9109275
:10010000000185B1806285B92FEF83ED90E3215026
:1001100080409040E1F700C0000085B18F7D85B937
:100120002FEF83ED90E3215080409040E1F700C035
:080130000000D2CFF894FFCFCC
:00000001FF
