:100000000C9434000C943E000C943E000C943E0082
:100010000C943E000C943E000C943E000C943E0068
:100020000C943E000C943E000C943E000C943E0058
:100030000C943E000C943E000C943E000C943E0048
:100040000C943E000C943E000C943E000C943E0038
:100050000C943E000C943E000C943E000C943E0028
:100060000C943E000C943E0011241FBECFEFD8E04C
:10007000DEBFCDBF0E9460000C9472000C940000A3
:100080001092C50087E68093C400E1ECF0E0808127
:100090008861808380818B7F8083E2ECF0E08081C7
:1000A0008660808380818F7C80838081877F80834E
:1000B00008959091C00095FFFCCF8093C6000895ED
:1000C0000E94400088E40E9459008AE00E94590082
:1000D0002FEF83ED90E3215080409040E1F700C086
:0800E0000000F0CFF894FFCFFF
:00000001FF
