:100000000C9434000C943E000C943E000C943E0082
:100010000C943E000C943E000C943E000C943E0068
:100020000C943E000C943E000C943E000C943E0058
:100030000C943E000C943E000C943E000C943E0048
:100040000C943E000C943E000C943E000C943E0038
:100050000C943E000C943E000C943E000C943E0028
:100060000C943E000C943E0011241FBECFEFD8E04C
:10007000DEBFCDBF0E9440000C9453000C940000E2
:100080008AB18F7E8AB984B1806284B98BB1806174
:100090008BB94C9B04C085B1806285B9FACF85B11C
:0A00A0008F7D85B9F6CFF894FFCFED
:00000001FF
