S02900004443204D4F544F5220434F4E54524F4C5F46554E4354494F4E2043414C4C494E472E73726563A3
S11300000C9434000C943E000C943E000C943E007E
S11300100C943E000C943E000C943E000C943E0064
S11300200C943E000C943E000C943E000C943E0054
S11300300C943E000C943E000C943E000C943E0044
S11300400C943E000C943E000C943E000C943E0034
S11300500C943E000C943E000C943E000C943E0024
S11300600C943E000C943E0011241FBECFEFD8E048
S1130070DEBFCDBF0E9469000C947D000C9400008B
S113008007C08FE99FE00197F1F700C00000C901A4
S11300909C0121503109892BA1F7089525B12160D4
S11300A025B925B12D7F25B90E944000089525B1B9
S11300B02E7F25B925B1226025B90E9440000895FC
S11300C025B12E7F25B925B12D7F25B90E94400089
S11300D0089584B1836084B988E893E10E944E0056
S11300E080ED97E00E94600088E893E10E94570049
S11100F080ED97E00E946000EFCFF894FFCF00
S9030000FC
