:100000000C9434000C9449000C9449000C94490061
:100010000C9449000C9449000C9449000C9449003C
:100020000C9449000C9449000C9449000C9449002C
:100030000C9449000C9449000C9449000C9449001C
:100040000C9449000C9449000C9449000C9449000C
:100050000C9449000C9449000C9449000C944900FC
:100060000C9449000C94490011241FBECFEFD8E036
:10007000DEBFCDBF11E0A0E0B1E0E8EFF2E002C0EA
:1000800005900D92A631B107D9F70E943C010C945E
:100090007A010C94000085B1886085B985E08A9565
:1000A000F1F7000085B1877F85B987EC90E0019773
:1000B000F1F700C0000008959BB1937C9BB983FFCA
:1000C00003C09BB194609BB982FF03C09BB1986051
:1000D0009BB981FF03C09BB190619BB980FF03C0B6
:1000E0008BB180628BB90E944B000895CF93C82FCB
:1000F000613021F485B1806185B903C085B18F7EFF
:1001000085B98C2F82958F700E945C008C2F8F7028
:100110000E945C00CF910895CF93C82F60E00E94A9
:100120007600C150C23030F48FE39FE10197F1F7C0
:1001300000C00000CF91089561E00E94760008950C
:10014000882311F090E401C090E0862F8F70890F12
:1001500080680E948C000895CF93DF93EC0103C068
:1001600021960E949C0088818111FACFDF91CF9166
:10017000089581E00E948C00089584B1806184B963
:1001800084B1886084B98AB18C638AB92FEF89EF12
:1001900090E0215080409040E1F700C0000085B120
:1001A0008F7E85B985B1877F85B983E00E945C0029
:1001B0008FE19EE40197F1F700C0000083E00E9408
:1001C0005C0087E592E00197F1F700C0000083E052
:1001D0000E945C0087E592E00197F1F700C0000003
:1001E00082E00E945C0087E592E00197F1F700C091
:1001F000000088E20E948C0088E00E948C0081E070
:100200000E948C0086E00E948C008CE00E948C0092
:100210000895CF93DF93EC018A30910568F09C013B
:10022000ADECBCEC0E946B019695879596958795F1
:10023000969587950E9409019E01ADECBCEC0E9449
:100240006B019695879596958795969587959C01D0
:10025000220F331F880F991F880F991F880F991F2E
:10026000820F931F9E01281B390BC901805D0E94DC
:100270009C00DF91CF9108950E94BD0060E080E076
:100280000E94A00080E091E00E94AC0060E081E06C
:100290000E94A0008AE091E00E94AC0082ED94E010
:1002A0000E94090182ED94E00E9409012FEF83ED85
:1002B00090E3215080409040E1F700C000000E9490
:1002C000B9002FEF83ED90E3215080409040E1F79B
:1002D00000C00000E7CFA29FB001B39FC001A39F61
:1002E000700D811D1124911DB29F700D811D11246F
:0802F000911D0895F894FFCF61
:1002F80048656C6C6F204C434400497420776F72DA
:060308006B7321200000D0
:00000001FF
