:100000000C9434000C943E000C943E000C943E0082
:100010000C943E000C943E000C943E000C943E0068
:100020000C943E000C943E000C943E000C943E0058
:100030000C943E000C943E000C943E000C943E0048
:100040000C943E000C943E000C943E000C943E0038
:100050000C943E000C943E000C943E000C943E0028
:100060000C943E000C943E0011241FBECFEFD8E04C
:10007000DEBFCDBF0E9440000C9473000C940000C2
:100080000E9451000E9461000E94650085B180625B
:1000900085B90E94650085B18F7D85B90E94650094
:1000A000F5CF84B58E7F84BD84B5826084BD85B56F
:1000B000856085BD85B58D7F85BD84B1806284B93D
:1000C000089588EC87BD16BC089520E030E007C095
:1000D000A99BFECF85B3826085BB2F5F3F4F2E3437
:0A00E0003105B4F30895F894FFCF42
:00000001FF
