S0180000756172745F696E69745F737472696E672E7372656347
S11300000C9434000C9449000C9449000C9449005D
S11300100C9449000C9449000C9449000C94490038
S11300200C9449000C9449000C9449000C94490028
S11300300C9449000C9449000C9449000C94490018
S11300400C9449000C9449000C9449000C94490008
S11300500C9449000C9449000C9449000C944900F8
S11300600C9449000C94490011241FBECFEFD8E032
S1130070DEBFCDBF11E0A0E0B1E0EAE1F1E002C0F3
S113008005900D92AC30B107D9F70E9478000C941A
S11300908B000C9400001092C50087E68093C40086
S11300A0E1ECF0E080818861808380818B7F8083B4
S11300B0E2ECF0E080818660808380818F7C8083A5
S11300C08081877F808308959091C00095FFFCCF45
S11300D08093C6000895CF93DF93EC0103C00E9480
S11300E06400219688818111FACFDF91CF91089520
S11300F00E944B0080E091E00E946B008AE00E9425
S113010064002FEF83ED90E3215080409040E1F7AD
S10D011000C00000EFCFF894FFCF09
S10F011A68656C6C6F2073756E696C0076
S9030000FC
