S0100000464153545F50574D2E7372656393
S11300000C9434000C943E000C943E000C943E007E
S11300100C943E000C943E000C943E000C943E0064
S11300200C943E000C943E000C943E000C943E0054
S11300300C943E000C943E000C943E000C943E0044
S11300400C943E000C943E000C943E000C943E0034
S11300500C943E000C943E000C943E000C943E0024
S11300600C943E000C943E0011241FBECFEFD8E048
S1130070DEBFCDBF0E9440000C9452000C940000DF
S11300808AB180648AB984B5836084BD84B5806C88
S113009084BD85B5826085BD85B58E7F85BD86E6C8
S10B00A087BDFFCFF894FFCFE8
S9030000FC
